{
  "contracts/petting.sol": {
    "NurseryPetting": {
      "abi": [
        {
          "inputs": [],
          "stateMutability": "nonpayable",
          "type": "constructor"
        },
        {
          "inputs": [
            {
              "internalType": "uint256[]",
              "name": "_gotchiIds",
              "type": "uint256[]"
            }
          ],
          "name": "petThemAll",
          "outputs": [],
          "stateMutability": "nonpayable",
          "type": "function"
        }
      ],
      "evm": {
        "bytecode": {
          "linkReferences": {},
          "object": "60a060405234801561001057600080fd5b507386935f11c86623dec8a25696e1c19a8659cbf95d73ffffffffffffffffffffffffffffffffffffffff1660808173ffffffffffffffffffffffffffffffffffffffff1660601b8152505060805160601c6102746100796000396000604e01526102746000f3fe608060405234801561001057600080fd5b506004361061002b5760003560e01c8063fb1ddebd14610030575b600080fd5b61004a60048036038101906100459190610133565b61004c565b005b7f000000000000000000000000000000000000000000000000000000000000000073ffffffffffffffffffffffffffffffffffffffff166322c6751983836040518363ffffffff1660e01b81526004016100a79291906101dc565b600060405180830381600087803b1580156100c157600080fd5b505af11580156100d5573d6000803e3d6000fd5b505050505050565b60008083601f8401126100f3576100f2610225565b5b8235905067ffffffffffffffff8111156101105761010f610220565b5b60208301915083602082028301111561012c5761012b61022a565b5b9250929050565b6000806020838503121561014a57610149610239565b5b600083013567ffffffffffffffff8111156101685761016761022f565b5b610174858286016100dd565b92509250509250929050565b600061018c8385610200565b93507f07ffffffffffffffffffffffffffffffffffffffffffffffffffffffffffffff8311156101bf576101be610234565b5b6020830292506101d0838584610211565b82840190509392505050565b600060208201905081810360008301526101f7818486610180565b90509392505050565b600082825260208201905092915050565b82818337600083830152505050565b600080fd5b600080fd5b600080fd5b600080fd5b600080fd5b600080fdfea264697066735822122060a98c852c9f21e3a2e276684d97979aad92759d75bd0feb17965f78c69fd61864736f6c63430008070033",
          "opcodes": "PUSH1 0xA0 PUSH1 0x40 MSTORE CALLVALUE DUP1 ISZERO PUSH2 0x10 JUMPI PUSH1 0x0 DUP1 REVERT JUMPDEST POP PUSH20 0x86935F11C86623DEC8A25696E1C19A8659CBF95D PUSH20 0xFFFFFFFFFFFFFFFFFFFFFFFFFFFFFFFFFFFFFFFF AND PUSH1 0x80 DUP2 PUSH20 0xFFFFFFFFFFFFFFFFFFFFFFFFFFFFFFFFFFFFFFFF AND PUSH1 0x60 SHL DUP2 MSTORE POP POP PUSH1 0x80 MLOAD PUSH1 0x60 SHR PUSH2 0x274 PUSH2 0x79 PUSH1 0x0 CODECOPY PUSH1 0x0 PUSH1 0x4E ADD MSTORE PUSH2 0x274 PUSH1 0x0 RETURN INVALID PUSH1 0x80 PUSH1 0x40 MSTORE CALLVALUE DUP1 ISZERO PUSH2 0x10 JUMPI PUSH1 0x0 DUP1 REVERT JUMPDEST POP PUSH1 0x4 CALLDATASIZE LT PUSH2 0x2B JUMPI PUSH1 0x0 CALLDATALOAD PUSH1 0xE0 SHR DUP1 PUSH4 0xFB1DDEBD EQ PUSH2 0x30 JUMPI JUMPDEST PUSH1 0x0 DUP1 REVERT JUMPDEST PUSH2 0x4A PUSH1 0x4 DUP1 CALLDATASIZE SUB DUP2 ADD SWAP1 PUSH2 0x45 SWAP2 SWAP1 PUSH2 0x133 JUMP JUMPDEST PUSH2 0x4C JUMP JUMPDEST STOP JUMPDEST PUSH32 0x0 PUSH20 0xFFFFFFFFFFFFFFFFFFFFFFFFFFFFFFFFFFFFFFFF AND PUSH4 0x22C67519 DUP4 DUP4 PUSH1 0x40 MLOAD DUP4 PUSH4 0xFFFFFFFF AND PUSH1 0xE0 SHL DUP2 MSTORE PUSH1 0x4 ADD PUSH2 0xA7 SWAP3 SWAP2 SWAP1 PUSH2 0x1DC JUMP JUMPDEST PUSH1 0x0 PUSH1 0x40 MLOAD DUP1 DUP4 SUB DUP2 PUSH1 0x0 DUP8 DUP1 EXTCODESIZE ISZERO DUP1 ISZERO PUSH2 0xC1 JUMPI PUSH1 0x0 DUP1 REVERT JUMPDEST POP GAS CALL ISZERO DUP1 ISZERO PUSH2 0xD5 JUMPI RETURNDATASIZE PUSH1 0x0 DUP1 RETURNDATACOPY RETURNDATASIZE PUSH1 0x0 REVERT JUMPDEST POP POP POP POP POP POP JUMP JUMPDEST PUSH1 0x0 DUP1 DUP4 PUSH1 0x1F DUP5 ADD SLT PUSH2 0xF3 JUMPI PUSH2 0xF2 PUSH2 0x225 JUMP JUMPDEST JUMPDEST DUP3 CALLDATALOAD SWAP1 POP PUSH8 0xFFFFFFFFFFFFFFFF DUP2 GT ISZERO PUSH2 0x110 JUMPI PUSH2 0x10F PUSH2 0x220 JUMP JUMPDEST JUMPDEST PUSH1 0x20 DUP4 ADD SWAP2 POP DUP4 PUSH1 0x20 DUP3 MUL DUP4 ADD GT ISZERO PUSH2 0x12C JUMPI PUSH2 0x12B PUSH2 0x22A JUMP JUMPDEST JUMPDEST SWAP3 POP SWAP3 SWAP1 POP JUMP JUMPDEST PUSH1 0x0 DUP1 PUSH1 0x20 DUP4 DUP6 SUB SLT ISZERO PUSH2 0x14A JUMPI PUSH2 0x149 PUSH2 0x239 JUMP JUMPDEST JUMPDEST PUSH1 0x0 DUP4 ADD CALLDATALOAD PUSH8 0xFFFFFFFFFFFFFFFF DUP2 GT ISZERO PUSH2 0x168 JUMPI PUSH2 0x167 PUSH2 0x22F JUMP JUMPDEST JUMPDEST PUSH2 0x174 DUP6 DUP3 DUP7 ADD PUSH2 0xDD JUMP JUMPDEST SWAP3 POP SWAP3 POP POP SWAP3 POP SWAP3 SWAP1 POP JUMP JUMPDEST PUSH1 0x0 PUSH2 0x18C DUP4 DUP6 PUSH2 0x200 JUMP JUMPDEST SWAP4 POP PUSH32 0x7FFFFFFFFFFFFFFFFFFFFFFFFFFFFFFFFFFFFFFFFFFFFFFFFFFFFFFFFFFFFFF DUP4 GT ISZERO PUSH2 0x1BF JUMPI PUSH2 0x1BE PUSH2 0x234 JUMP JUMPDEST JUMPDEST PUSH1 0x20 DUP4 MUL SWAP3 POP PUSH2 0x1D0 DUP4 DUP6 DUP5 PUSH2 0x211 JUMP JUMPDEST DUP3 DUP5 ADD SWAP1 POP SWAP4 SWAP3 POP POP POP JUMP JUMPDEST PUSH1 0x0 PUSH1 0x20 DUP3 ADD SWAP1 POP DUP2 DUP2 SUB PUSH1 0x0 DUP4 ADD MSTORE PUSH2 0x1F7 DUP2 DUP5 DUP7 PUSH2 0x180 JUMP JUMPDEST SWAP1 POP SWAP4 SWAP3 POP POP POP JUMP JUMPDEST PUSH1 0x0 DUP3 DUP3 MSTORE PUSH1 0x20 DUP3 ADD SWAP1 POP SWAP3 SWAP2 POP POP JUMP JUMPDEST DUP3 DUP2 DUP4 CALLDATACOPY PUSH1 0x0 DUP4 DUP4 ADD MSTORE POP POP POP JUMP JUMPDEST PUSH1 0x0 DUP1 REVERT JUMPDEST PUSH1 0x0 DUP1 REVERT JUMPDEST PUSH1 0x0 DUP1 REVERT JUMPDEST PUSH1 0x0 DUP1 REVERT JUMPDEST PUSH1 0x0 DUP1 REVERT JUMPDEST PUSH1 0x0 DUP1 REVERT INVALID LOG2 PUSH5 0x6970667358 0x22 SLT KECCAK256 PUSH1 0xA9 DUP13 DUP6 0x2C SWAP16 0x21 0xE3 LOG2 0xE2 PUSH23 0x684D97979AAD92759D75BD0FEB17965F78C69FD6186473 PUSH16 0x6C634300080700330000000000000000 "
        },
        "methodIdentifiers": {
          "petThemAll(uint256[])": "fb1ddebd"
        }
      }
    }
  }
}