{
  "_format": "hh-sol-artifact-1",
  "contractName": "Staking",
  "sourceName": "contracts/staking.sol",
  "abi": [
    {
      "inputs": [],
      "stateMutability": "nonpayable",
      "type": "constructor"
    },
    {
      "anonymous": false,
      "inputs": [
        {
          "indexed": true,
          "internalType": "address",
          "name": "previousOwner",
          "type": "address"
        },
        {
          "indexed": true,
          "internalType": "address",
          "name": "newOwner",
          "type": "address"
        }
      ],
      "name": "OwnershipTransferred",
      "type": "event"
    },
    {
      "inputs": [],
      "name": "claimGltr",
      "outputs": [],
      "stateMutability": "nonpayable",
      "type": "function"
    },
    {
      "inputs": [
        {
          "internalType": "address",
          "name": "_address",
          "type": "address"
        }
      ],
      "name": "getIsApproved",
      "outputs": [
        {
          "internalType": "bool",
          "name": "",
          "type": "bool"
        }
      ],
      "stateMutability": "view",
      "type": "function"
    },
    {
      "inputs": [
        {
          "internalType": "address",
          "name": "_address",
          "type": "address"
        }
      ],
      "name": "getIsSignedUp",
      "outputs": [
        {
          "internalType": "bool",
          "name": "",
          "type": "bool"
        }
      ],
      "stateMutability": "view",
      "type": "function"
    },
    {
      "inputs": [
        {
          "internalType": "address",
          "name": "_user",
          "type": "address"
        }
      ],
      "name": "getUserGhstBalance",
      "outputs": [
        {
          "internalType": "uint256",
          "name": "",
          "type": "uint256"
        }
      ],
      "stateMutability": "view",
      "type": "function"
    },
    {
      "inputs": [
        {
          "internalType": "address",
          "name": "_user",
          "type": "address"
        }
      ],
      "name": "getUserShares",
      "outputs": [
        {
          "internalType": "uint256",
          "name": "",
          "type": "uint256"
        }
      ],
      "stateMutability": "view",
      "type": "function"
    },
    {
      "inputs": [],
      "name": "getUsers",
      "outputs": [
        {
          "internalType": "address[]",
          "name": "",
          "type": "address[]"
        }
      ],
      "stateMutability": "view",
      "type": "function"
    },
    {
      "inputs": [
        {
          "internalType": "uint256",
          "name": "_pointer",
          "type": "uint256"
        },
        {
          "internalType": "uint256",
          "name": "_amount",
          "type": "uint256"
        }
      ],
      "name": "getUsersIndexed",
      "outputs": [
        {
          "internalType": "address[]",
          "name": "",
          "type": "address[]"
        }
      ],
      "stateMutability": "view",
      "type": "function"
    },
    {
      "inputs": [
        {
          "internalType": "address",
          "name": "_user",
          "type": "address"
        }
      ],
      "name": "getUsersToIndex",
      "outputs": [
        {
          "internalType": "uint256",
          "name": "",
          "type": "uint256"
        }
      ],
      "stateMutability": "view",
      "type": "function"
    },
    {
      "inputs": [],
      "name": "leave",
      "outputs": [],
      "stateMutability": "nonpayable",
      "type": "function"
    },
    {
      "inputs": [],
      "name": "owner",
      "outputs": [
        {
          "internalType": "address",
          "name": "",
          "type": "address"
        }
      ],
      "stateMutability": "view",
      "type": "function"
    },
    {
      "inputs": [],
      "name": "renounceOwnership",
      "outputs": [],
      "stateMutability": "nonpayable",
      "type": "function"
    },
    {
      "inputs": [
        {
          "internalType": "address",
          "name": "_address",
          "type": "address"
        },
        {
          "internalType": "bool",
          "name": "_isApproved",
          "type": "bool"
        }
      ],
      "name": "setIsApproved",
      "outputs": [],
      "stateMutability": "nonpayable",
      "type": "function"
    },
    {
      "inputs": [],
      "name": "signUp",
      "outputs": [],
      "stateMutability": "nonpayable",
      "type": "function"
    },
    {
      "inputs": [
        {
          "internalType": "address",
          "name": "newOwner",
          "type": "address"
        }
      ],
      "name": "transferOwnership",
      "outputs": [],
      "stateMutability": "nonpayable",
      "type": "function"
    },
    {
      "inputs": [
        {
          "internalType": "address",
          "name": "_tokenReceiver",
          "type": "address"
        }
      ],
      "name": "withdrawGhst",
      "outputs": [],
      "stateMutability": "nonpayable",
      "type": "function"
    },
    {
      "inputs": [
        {
          "internalType": "address",
          "name": "_tokenReceiver",
          "type": "address"
        }
      ],
      "name": "withdrawGltr",
      "outputs": [],
      "stateMutability": "nonpayable",
      "type": "function"
    },
    {
      "inputs": [
        {
          "internalType": "address",
          "name": "_tokenReceiver",
          "type": "address"
        }
      ],
      "name": "withdrawGltrAndGhst",
      "outputs": [],
      "stateMutability": "nonpayable",
      "type": "function"
    }
  ],
  "bytecode": "0x608060405273385eeac5cb85a38a9a07a70c73e0a3271cfb54a7600160006101000a81548173ffffffffffffffffffffffffffffffffffffffff021916908373ffffffffffffffffffffffffffffffffffffffff1602179055507373958d46b7aa2bc94926d8a215fa560a5cdca3ea600260006101000a81548173ffffffffffffffffffffffffffffffffffffffff021916908373ffffffffffffffffffffffffffffffffffffffff160217905550731fe64677ab1397e20a1211afae2758570fea1b8c600360006101000a81548173ffffffffffffffffffffffffffffffffffffffff021916908373ffffffffffffffffffffffffffffffffffffffff160217905550733801c3b3b5c98f88a9c9005966aa96aa440b9afc600460006101000a81548173ffffffffffffffffffffffffffffffffffffffff021916908373ffffffffffffffffffffffffffffffffffffffff1602179055503480156200016557600080fd5b50620001866200017a620003d960201b60201c565b620003e160201b60201c565b600160009054906101000a900473ffffffffffffffffffffffffffffffffffffffff1673ffffffffffffffffffffffffffffffffffffffff1663095ea7b3600260009054906101000a900473ffffffffffffffffffffffffffffffffffffffff167fffffffffffffffffffffffffffffffffffffffffffffffffffffffffffffffff6040518363ffffffff1660e01b81526004016200022792919062000639565b6020604051808303816000875af115801562000247573d6000803e3d6000fd5b505050506040513d601f19601f820116820180604052508101906200026d9190620006a8565b50600260009054906101000a900473ffffffffffffffffffffffffffffffffffffffff1673ffffffffffffffffffffffffffffffffffffffff1663095ea7b3600360009054906101000a900473ffffffffffffffffffffffffffffffffffffffff167fffffffffffffffffffffffffffffffffffffffffffffffffffffffffffffffff6040518363ffffffff1660e01b81526004016200030f92919062000639565b6020604051808303816000875af11580156200032f573d6000803e3d6000fd5b505050506040513d601f19601f82011682018060405250810190620003559190620006a8565b506200037b7386935f11c86623dec8a25696e1c19a8659cbf95d620004a560201b60201c565b6001600960003373ffffffffffffffffffffffffffffffffffffffff1673ffffffffffffffffffffffffffffffffffffffff16815260200190815260200160002060006101000a81548160ff0219169083151502179055506200075d565b600033905090565b60008060009054906101000a900473ffffffffffffffffffffffffffffffffffffffff169050816000806101000a81548173ffffffffffffffffffffffffffffffffffffffff021916908373ffffffffffffffffffffffffffffffffffffffff1602179055508173ffffffffffffffffffffffffffffffffffffffff168173ffffffffffffffffffffffffffffffffffffffff167f8be0079c531659141344cd1fd0a4f28419497f9722a3daafe3b4186f6b6457e060405160405180910390a35050565b6000600660008373ffffffffffffffffffffffffffffffffffffffff1673ffffffffffffffffffffffffffffffffffffffff16815260200190815260200160002054146200052a576040517f08c379a000000000000000000000000000000000000000000000000000000000815260040162000521906200073b565b60405180910390fd5b600580549050600660008373ffffffffffffffffffffffffffffffffffffffff1673ffffffffffffffffffffffffffffffffffffffff168152602001908152602001600020819055506005819080600181540180825580915050600190039060005260206000200160009091909190916101000a81548173ffffffffffffffffffffffffffffffffffffffff021916908373ffffffffffffffffffffffffffffffffffffffff16021790555050565b600073ffffffffffffffffffffffffffffffffffffffff82169050919050565b60006200060682620005d9565b9050919050565b6200061881620005f9565b82525050565b6000819050919050565b62000633816200061e565b82525050565b60006040820190506200065060008301856200060d565b6200065f602083018462000628565b9392505050565b600080fd5b60008115159050919050565b62000682816200066b565b81146200068e57600080fd5b50565b600081519050620006a28162000677565b92915050565b600060208284031215620006c157620006c062000666565b5b6000620006d18482850162000691565b91505092915050565b600082825260208201905092915050565b7f7374616b696e673a207573657220616c72656164792061646465640000000000600082015250565b600062000723601b83620006da565b91506200073082620006eb565b602082019050919050565b60006020820190508181036000830152620007568162000714565b9050919050565b6125ba806200076d6000396000f3fe608060405234801561001057600080fd5b506004361061010a5760003560e01c80638fb82ae8116100a2578063dff7173111610071578063dff7173114610257578063e19493f914610287578063e4c6c2d4146102a3578063f2fde38b146102d3578063f4f85d96146102ef5761010a565b80638fb82ae8146101e3578063ba0cb22b14610213578063bf96ae6314610243578063d66d9e191461024d5761010a565b80636a053baa116100de5780636a053baa14610183578063715018a61461019f57806384e4159e146101a95780638da5cb5b146101c55761010a565b8062ce8e3e1461010f578063044d052e1461012d57806315f32010146101495780633aa9976014610179575b600080fd5b61011761031f565b6040516101249190611d72565b60405180910390f35b61014760048036038101906101429190611dc5565b6103ad565b005b610163600480360381019061015e9190611dc5565b61079f565b6040516101709190611e0d565b60405180910390f35b6101816107f5565b005b61019d60048036038101906101989190611dc5565b610885565b005b6101a7610a93565b005b6101c360048036038101906101be9190611dc5565b610b1b565b005b6101cd610d29565b6040516101da9190611e37565b60405180910390f35b6101fd60048036038101906101f89190611dc5565b610d52565b60405161020a9190611e6b565b60405180910390f35b61022d60048036038101906102289190611dc5565b610d9b565b60405161023a9190611e6b565b60405180910390f35b61024b610de4565b005b6102556110fa565b005b610271600480360381019061026c9190611dc5565b61146b565b60405161027e9190611e6b565b60405180910390f35b6102a1600480360381019061029c9190611eb2565b6114b4565b005b6102bd60048036038101906102b89190611dc5565b61158b565b6040516102ca9190611e0d565b60405180910390f35b6102ed60048036038101906102e89190611dc5565b6115d6565b005b61030960048036038101906103049190611f1e565b6116cd565b6040516103169190611d72565b60405180910390f35b606060058054806020026020016040519081016040528092919081815260200182805480156103a357602002820191906000526020600020905b8160009054906101000a900473ffffffffffffffffffffffffffffffffffffffff1673ffffffffffffffffffffffffffffffffffffffff1681526020019060010190808311610359575b5050505050905090565b6103b5610d29565b73ffffffffffffffffffffffffffffffffffffffff163373ffffffffffffffffffffffffffffffffffffffff1614806104375750600960003373ffffffffffffffffffffffffffffffffffffffff1673ffffffffffffffffffffffffffffffffffffffff16815260200190815260200160002060009054906101000a900460ff165b610476576040517f08c379a000000000000000000000000000000000000000000000000000000000815260040161046d90611fbb565b60405180910390fd5b600360009054906101000a900473ffffffffffffffffffffffffffffffffffffffff1673ffffffffffffffffffffffffffffffffffffffff1663ddc6326260006040518263ffffffff1660e01b81526004016104d29190612020565b600060405180830381600087803b1580156104ec57600080fd5b505af1158015610500573d6000803e3d6000fd5b505050506000600460009054906101000a900473ffffffffffffffffffffffffffffffffffffffff1673ffffffffffffffffffffffffffffffffffffffff166370a08231306040518263ffffffff1660e01b81526004016105619190611e37565b602060405180830381865afa15801561057e573d6000803e3d6000fd5b505050506040513d601f19601f820116820180604052508101906105a29190612050565b9050600081111561064f57600460009054906101000a900473ffffffffffffffffffffffffffffffffffffffff1673ffffffffffffffffffffffffffffffffffffffff1663a9059cbb83836040518363ffffffff1660e01b815260040161060a92919061207d565b6020604051808303816000875af1158015610629573d6000803e3d6000fd5b505050506040513d601f19601f8201168201806040525081019061064d91906120bb565b505b6000600160009054906101000a900473ffffffffffffffffffffffffffffffffffffffff1673ffffffffffffffffffffffffffffffffffffffff166370a08231306040518263ffffffff1660e01b81526004016106ac9190611e37565b602060405180830381865afa1580156106c9573d6000803e3d6000fd5b505050506040513d601f19601f820116820180604052508101906106ed9190612050565b9050600081111561079a57600160009054906101000a900473ffffffffffffffffffffffffffffffffffffffff1673ffffffffffffffffffffffffffffffffffffffff1663a9059cbb84836040518363ffffffff1660e01b815260040161075592919061207d565b6020604051808303816000875af1158015610774573d6000803e3d6000fd5b505050506040513d601f19601f8201168201806040525081019061079891906120bb565b505b505050565b6000600960008373ffffffffffffffffffffffffffffffffffffffff1673ffffffffffffffffffffffffffffffffffffffff16815260200190815260200160002060009054906101000a900460ff169050919050565b600360009054906101000a900473ffffffffffffffffffffffffffffffffffffffff1673ffffffffffffffffffffffffffffffffffffffff1663ddc6326260006040518263ffffffff1660e01b81526004016108519190612020565b600060405180830381600087803b15801561086b57600080fd5b505af115801561087f573d6000803e3d6000fd5b50505050565b61088d610d29565b73ffffffffffffffffffffffffffffffffffffffff163373ffffffffffffffffffffffffffffffffffffffff16148061090f5750600960003373ffffffffffffffffffffffffffffffffffffffff1673ffffffffffffffffffffffffffffffffffffffff16815260200190815260200160002060009054906101000a900460ff165b61094e576040517f08c379a000000000000000000000000000000000000000000000000000000000815260040161094590611fbb565b60405180910390fd5b6000600460009054906101000a900473ffffffffffffffffffffffffffffffffffffffff1673ffffffffffffffffffffffffffffffffffffffff166370a08231306040518263ffffffff1660e01b81526004016109ab9190611e37565b602060405180830381865afa1580156109c8573d6000803e3d6000fd5b505050506040513d601f19601f820116820180604052508101906109ec9190612050565b9050600460009054906101000a900473ffffffffffffffffffffffffffffffffffffffff1673ffffffffffffffffffffffffffffffffffffffff1663a9059cbb83836040518363ffffffff1660e01b8152600401610a4b92919061207d565b6020604051808303816000875af1158015610a6a573d6000803e3d6000fd5b505050506040513d601f19601f82011682018060405250810190610a8e91906120bb565b505050565b610a9b6117f5565b73ffffffffffffffffffffffffffffffffffffffff16610ab9610d29565b73ffffffffffffffffffffffffffffffffffffffff1614610b0f576040517f08c379a0000000000000000000000000000000000000000000000000000000008152600401610b0690612134565b60405180910390fd5b610b1960006117fd565b565b610b23610d29565b73ffffffffffffffffffffffffffffffffffffffff163373ffffffffffffffffffffffffffffffffffffffff161480610ba55750600960003373ffffffffffffffffffffffffffffffffffffffff1673ffffffffffffffffffffffffffffffffffffffff16815260200190815260200160002060009054906101000a900460ff165b610be4576040517f08c379a0000000000000000000000000000000000000000000000000000000008152600401610bdb90611fbb565b60405180910390fd5b6000600160009054906101000a900473ffffffffffffffffffffffffffffffffffffffff1673ffffffffffffffffffffffffffffffffffffffff166370a08231306040518263ffffffff1660e01b8152600401610c419190611e37565b602060405180830381865afa158015610c5e573d6000803e3d6000fd5b505050506040513d601f19601f82011682018060405250810190610c829190612050565b9050600160009054906101000a900473ffffffffffffffffffffffffffffffffffffffff1673ffffffffffffffffffffffffffffffffffffffff1663a9059cbb83836040518363ffffffff1660e01b8152600401610ce192919061207d565b6020604051808303816000875af1158015610d00573d6000803e3d6000fd5b505050506040513d601f19601f82011682018060405250810190610d2491906120bb565b505050565b60008060009054906101000a900473ffffffffffffffffffffffffffffffffffffffff16905090565b6000600660008373ffffffffffffffffffffffffffffffffffffffff1673ffffffffffffffffffffffffffffffffffffffff168152602001908152602001600020549050919050565b6000600860008373ffffffffffffffffffffffffffffffffffffffff1673ffffffffffffffffffffffffffffffffffffffff168152602001908152602001600020549050919050565b6000600760003373ffffffffffffffffffffffffffffffffffffffff1673ffffffffffffffffffffffffffffffffffffffff1681526020019081526020016000205414610e66576040517f08c379a0000000000000000000000000000000000000000000000000000000008152600401610e5d906121a0565b60405180910390fd5b600160009054906101000a900473ffffffffffffffffffffffffffffffffffffffff1673ffffffffffffffffffffffffffffffffffffffff166323b872dd333068055de6a779bbac00006040518463ffffffff1660e01b8152600401610ece939291906121c0565b6020604051808303816000875af1158015610eed573d6000803e3d6000fd5b505050506040513d601f19601f82011682018060405250810190610f1191906120bb565b506000670de0b6b3a764000068055de6a779bbac0000610f319190612226565b90506000600260009054906101000a900473ffffffffffffffffffffffffffffffffffffffff1673ffffffffffffffffffffffffffffffffffffffff1663ed0dc836836040518263ffffffff1660e01b8152600401610f909190611e6b565b6020604051808303816000875af1158015610faf573d6000803e3d6000fd5b505050506040513d601f19601f82011682018060405250810190610fd39190612050565b9050600360009054906101000a900473ffffffffffffffffffffffffffffffffffffffff1673ffffffffffffffffffffffffffffffffffffffff1663e2bbb1586000836040518363ffffffff1660e01b815260040161103392919061225a565b600060405180830381600087803b15801561104d57600080fd5b505af1158015611061573d6000803e3d6000fd5b5050505081600760003373ffffffffffffffffffffffffffffffffffffffff1673ffffffffffffffffffffffffffffffffffffffff1681526020019081526020016000208190555080600860003373ffffffffffffffffffffffffffffffffffffffff1673ffffffffffffffffffffffffffffffffffffffff168152602001908152602001600020819055506110f6336118c1565b5050565b6000600760003373ffffffffffffffffffffffffffffffffffffffff1673ffffffffffffffffffffffffffffffffffffffff168152602001908152602001600020541161117c576040517f08c379a0000000000000000000000000000000000000000000000000000000008152600401611173906122cf565b60405180910390fd5b6000600760003373ffffffffffffffffffffffffffffffffffffffff1673ffffffffffffffffffffffffffffffffffffffff1681526020019081526020016000205490506000600860003373ffffffffffffffffffffffffffffffffffffffff1673ffffffffffffffffffffffffffffffffffffffff1681526020019081526020016000205490506000600760003373ffffffffffffffffffffffffffffffffffffffff1673ffffffffffffffffffffffffffffffffffffffff168152602001908152602001600020819055506000600860003373ffffffffffffffffffffffffffffffffffffffff1673ffffffffffffffffffffffffffffffffffffffff16815260200190815260200160002081905550600360009054906101000a900473ffffffffffffffffffffffffffffffffffffffff1673ffffffffffffffffffffffffffffffffffffffff1663441a3e706000836040518363ffffffff1660e01b81526004016112ec92919061225a565b600060405180830381600087803b15801561130657600080fd5b505af115801561131a573d6000803e3d6000fd5b50505050600260009054906101000a900473ffffffffffffffffffffffffffffffffffffffff1673ffffffffffffffffffffffffffffffffffffffff1663747661ab826040518263ffffffff1660e01b81526004016113799190611e6b565b6020604051808303816000875af1158015611398573d6000803e3d6000fd5b505050506040513d601f19601f820116820180604052508101906113bc9190612050565b50600160009054906101000a900473ffffffffffffffffffffffffffffffffffffffff1673ffffffffffffffffffffffffffffffffffffffff1663a9059cbb33846040518363ffffffff1660e01b815260040161141a92919061207d565b6020604051808303816000875af1158015611439573d6000803e3d6000fd5b505050506040513d601f19601f8201168201806040525081019061145d91906120bb565b50611467336119f2565b5050565b6000600760008373ffffffffffffffffffffffffffffffffffffffff1673ffffffffffffffffffffffffffffffffffffffff168152602001908152602001600020549050919050565b6114bc6117f5565b73ffffffffffffffffffffffffffffffffffffffff166114da610d29565b73ffffffffffffffffffffffffffffffffffffffff1614611530576040517f08c379a000000000000000000000000000000000000000000000000000000000815260040161152790612134565b60405180910390fd5b80600960008473ffffffffffffffffffffffffffffffffffffffff1673ffffffffffffffffffffffffffffffffffffffff16815260200190815260200160002060006101000a81548160ff0219169083151502179055505050565b600080600660008473ffffffffffffffffffffffffffffffffffffffff1673ffffffffffffffffffffffffffffffffffffffff16815260200190815260200160002054119050919050565b6115de6117f5565b73ffffffffffffffffffffffffffffffffffffffff166115fc610d29565b73ffffffffffffffffffffffffffffffffffffffff1614611652576040517f08c379a000000000000000000000000000000000000000000000000000000000815260040161164990612134565b60405180910390fd5b600073ffffffffffffffffffffffffffffffffffffffff168173ffffffffffffffffffffffffffffffffffffffff16036116c1576040517f08c379a00000000000000000000000000000000000000000000000000000000081526004016116b890612361565b60405180910390fd5b6116ca816117fd565b50565b606060008267ffffffffffffffff8111156116eb576116ea612381565b5b6040519080825280602002602001820160405280156117195781602001602082028036833780820191505090505b50905060005b838110156117ea576000818661173591906123b0565b905060058054905081111561174a57506117ea565b6005818154811061175e5761175d612406565b5b9060005260206000200160009054906101000a900473ffffffffffffffffffffffffffffffffffffffff1683838151811061179c5761179b612406565b5b602002602001019073ffffffffffffffffffffffffffffffffffffffff16908173ffffffffffffffffffffffffffffffffffffffff16815250505080806117e290612435565b91505061171f565b508091505092915050565b600033905090565b60008060009054906101000a900473ffffffffffffffffffffffffffffffffffffffff169050816000806101000a81548173ffffffffffffffffffffffffffffffffffffffff021916908373ffffffffffffffffffffffffffffffffffffffff1602179055508173ffffffffffffffffffffffffffffffffffffffff168173ffffffffffffffffffffffffffffffffffffffff167f8be0079c531659141344cd1fd0a4f28419497f9722a3daafe3b4186f6b6457e060405160405180910390a35050565b6000600660008373ffffffffffffffffffffffffffffffffffffffff1673ffffffffffffffffffffffffffffffffffffffff1681526020019081526020016000205414611943576040517f08c379a000000000000000000000000000000000000000000000000000000000815260040161193a906124c9565b60405180910390fd5b600580549050600660008373ffffffffffffffffffffffffffffffffffffffff1673ffffffffffffffffffffffffffffffffffffffff168152602001908152602001600020819055506005819080600181540180825580915050600190039060005260206000200160009091909190916101000a81548173ffffffffffffffffffffffffffffffffffffffff021916908373ffffffffffffffffffffffffffffffffffffffff16021790555050565b6000600660008373ffffffffffffffffffffffffffffffffffffffff1673ffffffffffffffffffffffffffffffffffffffff1681526020019081526020016000205403611a74576040517f08c379a0000000000000000000000000000000000000000000000000000000008152600401611a6b90612535565b60405180910390fd5b6000600660008373ffffffffffffffffffffffffffffffffffffffff1673ffffffffffffffffffffffffffffffffffffffff16815260200190815260200160002054905060006001600580549050611acc9190612226565b9050600060058281548110611ae457611ae3612406565b5b9060005260206000200160009054906101000a900473ffffffffffffffffffffffffffffffffffffffff16905060058281548110611b2557611b24612406565b5b9060005260206000200160009054906101000a900473ffffffffffffffffffffffffffffffffffffffff1660058481548110611b6457611b63612406565b5b9060005260206000200160006101000a81548173ffffffffffffffffffffffffffffffffffffffff021916908373ffffffffffffffffffffffffffffffffffffffff16021790555082600660008373ffffffffffffffffffffffffffffffffffffffff1673ffffffffffffffffffffffffffffffffffffffff168152602001908152602001600020819055506005805480611c0257611c01612555565b5b6001900381819060005260206000200160006101000a81549073ffffffffffffffffffffffffffffffffffffffff021916905590556000600660008673ffffffffffffffffffffffffffffffffffffffff1673ffffffffffffffffffffffffffffffffffffffff1681526020019081526020016000208190555050505050565b600081519050919050565b600082825260208201905092915050565b6000819050602082019050919050565b600073ffffffffffffffffffffffffffffffffffffffff82169050919050565b6000611cd982611cae565b9050919050565b611ce981611cce565b82525050565b6000611cfb8383611ce0565b60208301905092915050565b6000602082019050919050565b6000611d1f82611c82565b611d298185611c8d565b9350611d3483611c9e565b8060005b83811015611d65578151611d4c8882611cef565b9750611d5783611d07565b925050600181019050611d38565b5085935050505092915050565b60006020820190508181036000830152611d8c8184611d14565b905092915050565b600080fd5b611da281611cce565b8114611dad57600080fd5b50565b600081359050611dbf81611d99565b92915050565b600060208284031215611ddb57611dda611d94565b5b6000611de984828501611db0565b91505092915050565b60008115159050919050565b611e0781611df2565b82525050565b6000602082019050611e226000830184611dfe565b92915050565b611e3181611cce565b82525050565b6000602082019050611e4c6000830184611e28565b92915050565b6000819050919050565b611e6581611e52565b82525050565b6000602082019050611e806000830184611e5c565b92915050565b611e8f81611df2565b8114611e9a57600080fd5b50565b600081359050611eac81611e86565b92915050565b60008060408385031215611ec957611ec8611d94565b5b6000611ed785828601611db0565b9250506020611ee885828601611e9d565b9150509250929050565b611efb81611e52565b8114611f0657600080fd5b50565b600081359050611f1881611ef2565b92915050565b60008060408385031215611f3557611f34611d94565b5b6000611f4385828601611f09565b9250506020611f5485828601611f09565b9150509250929050565b600082825260208201905092915050565b7f5374616b696e673a204e6f7420417070726f7665640000000000000000000000600082015250565b6000611fa5601583611f5e565b9150611fb082611f6f565b602082019050919050565b60006020820190508181036000830152611fd481611f98565b9050919050565b6000819050919050565b6000819050919050565b600061200a61200561200084611fdb565b611fe5565b611e52565b9050919050565b61201a81611fef565b82525050565b60006020820190506120356000830184612011565b92915050565b60008151905061204a81611ef2565b92915050565b60006020828403121561206657612065611d94565b5b60006120748482850161203b565b91505092915050565b60006040820190506120926000830185611e28565b61209f6020830184611e5c565b9392505050565b6000815190506120b581611e86565b92915050565b6000602082840312156120d1576120d0611d94565b5b60006120df848285016120a6565b91505092915050565b7f4f776e61626c653a2063616c6c6572206973206e6f7420746865206f776e6572600082015250565b600061211e602083611f5e565b9150612129826120e8565b602082019050919050565b6000602082019050818103600083015261214d81612111565b9050919050565b7f5374616b696e673a20416c7265616479207374616b696e670000000000000000600082015250565b600061218a601883611f5e565b915061219582612154565b602082019050919050565b600060208201905081810360008301526121b98161217d565b9050919050565b60006060820190506121d56000830186611e28565b6121e26020830185611e28565b6121ef6040830184611e5c565b949350505050565b7f4e487b7100000000000000000000000000000000000000000000000000000000600052601160045260246000fd5b600061223182611e52565b915061223c83611e52565b92508282101561224f5761224e6121f7565b5b828203905092915050565b600060408201905061226f6000830185612011565b61227c6020830184611e5c565b9392505050565b7f5374616b696e673a204e6f7468696e6720746f20756e7374616b650000000000600082015250565b60006122b9601b83611f5e565b91506122c482612283565b602082019050919050565b600060208201905081810360008301526122e8816122ac565b9050919050565b7f4f776e61626c653a206e6577206f776e657220697320746865207a65726f206160008201527f6464726573730000000000000000000000000000000000000000000000000000602082015250565b600061234b602683611f5e565b9150612356826122ef565b604082019050919050565b6000602082019050818103600083015261237a8161233e565b9050919050565b7f4e487b7100000000000000000000000000000000000000000000000000000000600052604160045260246000fd5b60006123bb82611e52565b91506123c683611e52565b9250827fffffffffffffffffffffffffffffffffffffffffffffffffffffffffffffffff038211156123fb576123fa6121f7565b5b828201905092915050565b7f4e487b7100000000000000000000000000000000000000000000000000000000600052603260045260246000fd5b600061244082611e52565b91507fffffffffffffffffffffffffffffffffffffffffffffffffffffffffffffffff8203612472576124716121f7565b5b600182019050919050565b7f7374616b696e673a207573657220616c72656164792061646465640000000000600082015250565b60006124b3601b83611f5e565b91506124be8261247d565b602082019050919050565b600060208201905081810360008301526124e2816124a6565b9050919050565b7f5374616b696e673a207573657220616c72656164792072656d6f766564000000600082015250565b600061251f601d83611f5e565b915061252a826124e9565b602082019050919050565b6000602082019050818103600083015261254e81612512565b9050919050565b7f4e487b7100000000000000000000000000000000000000000000000000000000600052603160045260246000fdfea2646970667358221220e48f5d82fab37bf282457559da29c66d9edf8b54d87b733ec5cbcb0f12633c0a64736f6c634300080d0033",
  "linkReferences": {},
  "deployedLinkReferences": {}
}