{
  "_format": "hh-sol-artifact-1",
  "contractName": "NurseryPetting",
  "sourceName": "contracts/petting.sol",
  "abi": [
    {
      "inputs": [],
      "stateMutability": "nonpayable",
      "type": "constructor"
    },
    {
      "inputs": [
        {
          "internalType": "uint256[]",
          "name": "_gotchiIds",
          "type": "uint256[]"
        }
      ],
      "name": "petThemAll",
      "outputs": [],
      "stateMutability": "nonpayable",
      "type": "function"
    }
  ],
  "bytecode": "0x60a060405234801561001057600080fd5b507386935f11c86623dec8a25696e1c19a8659cbf95d73ffffffffffffffffffffffffffffffffffffffff1660808173ffffffffffffffffffffffffffffffffffffffff1660601b8152505060805160601c6102746100796000396000604e01526102746000f3fe608060405234801561001057600080fd5b506004361061002b5760003560e01c8063fb1ddebd14610030575b600080fd5b61004a60048036038101906100459190610133565b61004c565b005b7f000000000000000000000000000000000000000000000000000000000000000073ffffffffffffffffffffffffffffffffffffffff166322c6751983836040518363ffffffff1660e01b81526004016100a79291906101dc565b600060405180830381600087803b1580156100c157600080fd5b505af11580156100d5573d6000803e3d6000fd5b505050505050565b60008083601f8401126100f3576100f2610225565b5b8235905067ffffffffffffffff8111156101105761010f610220565b5b60208301915083602082028301111561012c5761012b61022a565b5b9250929050565b6000806020838503121561014a57610149610239565b5b600083013567ffffffffffffffff8111156101685761016761022f565b5b610174858286016100dd565b92509250509250929050565b600061018c8385610200565b93507f07ffffffffffffffffffffffffffffffffffffffffffffffffffffffffffffff8311156101bf576101be610234565b5b6020830292506101d0838584610211565b82840190509392505050565b600060208201905081810360008301526101f7818486610180565b90509392505050565b600082825260208201905092915050565b82818337600083830152505050565b600080fd5b600080fd5b600080fd5b600080fd5b600080fd5b600080fdfea264697066735822122060a98c852c9f21e3a2e276684d97979aad92759d75bd0feb17965f78c69fd61864736f6c63430008070033",
  "linkReferences": {},
  "deployedLinkReferences": {}
}